:100571003F065B4F666D7D077F6F777C395E7971D2
:100581000040761E7038375C733E783D6750376E99
:10059100BF86DBCFE6EDFD87FFEF460102040810C1
:1005A100204080000708090004050600010203003D
:0405B1000000000046
:1004D000E4F593F594F591F592F595F596F5B1F56A
:1004E000B2F5B3F5B4F5C9F5CAF5CBF5CCF5E1F540
:1004F000E2758E80758CA9758A9AD2A9D28CD2AFFA
:10050000F541759D1075BCE0F536F539753801F586
:1005100024F523F522F521F528F527F526F525F50F
:080520003DF53CF53BF53A22E4
:1005F900E4F5BDF5BEE5BC54E044084FF5BC000088
:100609000000E5BC30E4FB53BCEFAFBDEF75F0046F
:0D061900A4FFAEF0E5BE5403FDEF4DFF223F
:1003C300C3EF9430EE94005005E4F53EF5297D40EB
:1003D3007C007B01ED24F0F582EC34FFF583C3EF61
:1003E3009582EE95834012ED2410F582E43CF5836B
:1003F300D3EF9582EE9583400B74402DFDE43CFCD6
:100403000BBB11D0852C2D852B2CEBD394104004E2
:10041300E4F52B228B2BE52D652C703CE52C652B0D
:100423007036E52DD39400402FE52CD3940040285B
:10043300E52BD394004021E53E70068B378B3EF5C8
:1004430029E53EB5030F0529E529C39464400975E1
:08045300295A8B3722E4F52938
:01045B00227E
:1006A000E4FEEF25E0FF92C0D2C3C2C30EBE08F243
:0106B0002227
:10065100E54190059C93F4FF1206A0742E2541F804
:10066100E690057193FF1206A0D2CCC2CC0541E5FC
:0A06710041C394084003E4F5412260
:03000B0002067B6F
:10067B00C0E0C083C082C0D075D000C000C006C02F
:10068B0007120651D200D007D006D000D0D0D082AE
:05069B00D083D0E03225
:100626007F08782E7410F608DFFCE4F536F5397588
:100636003801F524F523F522F521F528F527F526C9
:0A064600F525F53DF53CF53BF53ACE
:010650002287
:0D02D500E5371313543FF539FFE4FCFDFE3F
:0802E2008F0B8E0A8D098C08B8
:1002EA00EC4D4E4F7003F53522EC33405BE4F50CD0
:1002FA00AF0BAE0AAD09AC08EC4D4E4F700CC3748F
:10030A0007950C242EF876108036E47B0AFAF9F861
:10031A00AF0BAE0AAD09AC081205B5AF03C374073B
:10032A00950C242EF8A607AF0BAE0AAD09AC08E46B
:10033A007B0AFAF9F81205B58F0B8E0A8D098C081B
:10034A00050CE50CB408A922752E11AF0BAE0AAD47
:10035A0009AC081201F98F0B8E0A8D098C08E4F595
:10036A000CAF0BAE0AAD09AC08EC4D4E4F700CC386
:10037A007406950C242EF876108036E47B0AFAF976
:10038A00F8AF0BAE0AAD09AC081205B5AF03C374DA
:10039A0006950C242EF8A607AF0BAE0AAD09AC08D9
:1003AA00E47B0AFAF9F81205B58F0B8E0A8D098CCF
:0803BA0008050CE50CB407A9CD
:0103C2002218
:10045C00E53924FE602314603A14604C2403706365
:10046C00E5242528F53DE5233527F53CE522352601
:10047C00F53BE5213525F53A22C3E5249528F53DD4
:10048C00E5239527F53CE5229526F53BE5219525B9
:10049C00F53A22AF28AE27AD26AC25AB24AA23A96A
:1004AC0022A8211201AA8013AB28AA27A926A825C5
:1004BC00AF24AE23AD22AC211205B58F3D8E3C8D01
:0404CC003B8C3A2209
:10000E00E53714B4100040030201A390002775F0E9
:10001E0003A4C58325F0C58373020057020057025F
:10002E00005702012A020057020057020057020031
:10003E00ED02005702005702005702012A02005734
:10004E000201A302013902012AE53670427F0AFE3F
:10005E00FDFCAB24AA23A922A8211201AAA804A957
:10006E0005AA06AB07E5379005A493FFE5388FF098
:10007E00A4FFAEF0E4FCFDEB2FF524EA3EF523EDF4
:10008E0039F522EC38F521AF24AE23AD228049E5B7
:10009E0036640160030201A67F0AFEFDFCAB28AAAE
:1000AE0027A926A8251201AAA804A905AA06AB0706
:1000BE00E5379005A493FFE5388FF0A4FFAEF0E48A
:1000CE00FCFDEB2FF528EA3EF527ED39F526EC3849
:1000DE00F525AF28AE27AD26FC1202E20201A6E5F9
:1000EE0036701CAF24AE23AD22AC21EC4D4E4F70BA
:1000FE000280231202D57536017538010201A6E57C
:10010E0036640160030201A6AF28AE27AD26AC25EA
:10011E00EC4D4E4F70127538FF0201A6E536700891
:10012E001202D57536018070020626E536703185CD
:10013E00243D85233C85223B85213AAF3DAE3CAD27
:10014E003BAC3A1202E2E4F536F524F523F522F53E
:10015E0021F528F527F526F525F539753801802B7B
:10016E00E536B4013312045CAF3DAE3CAD3BAC3A68
:10017E001202E2E4F536F524F523F522F521F528F1
:10018E00F527F526F525753801F539F53DF53CF5DC
:0C019E003BF53A8003120626E4F53722F8
:100528001204D07F08782E7410F608DFFC7F08E4E8
:10053800F53EF52BF52CF52DF529F537F52A300084
:10054800FDC200052AE52AC3940A4011E4F52A7F72
:10055800041205F9C3EE940450031203C3E537D31C
:09056800940040DA12000E80D567
:030000000206B144
:0C06B100787FE4F6D8FD75814102052831
:1001AA00E88FF0A4CC8BF0A42CFCE98EF0A42CFCF4
:1001BA008AF0EDA42CFCEA8EF0A4CDA8F08BF0A472
:1001CA002DCC3825F0FDE98FF0A42CCD35F0FCEBD1
:1001DA008EF0A4FEA9F0EB8FF0A4CFC5F02ECD3996
:0F01EA00FEE43CFCEAA42DCE35F0FDE43CFC2203
:1005B500C2D5E830E70FB2D5E4C39BFBE49AFAE471
:1005C50099F9E498F8EC30E717B2D51205EB120269
:1005D50043E4C39BFBE49AFAE499F9E498F88003B1
:1005E50012024330D50DE4C39FFFE49EFEE49DFD5A
:0405F500E49CFC2264
:0E01F900C3E49FFFE49EFEE49DFDE49CFC2217
:1002070075F008758200EF2FFFEE33FECD33CDCCAE
:1002170033CCC58233C5829BED9AEC99E582984031
:100227000CF582EE9BFEED9AFDEC99FC0FD5F0D60E
:10023700E4CEFBE4CDFAE4CCF9A88222B800C1B938
:100247000059BA002DEC8BF084CFCECDFCE5F0CB76
:10025700F97818EF2FFFEE33FEED33FDEC33FCEBAF
:1002670033FB10D703994004EB99FB0FD8E5E4F96A
:10027700FA227818EF2FFFEE33FEED33FDEC33FC57
:10028700C933C910D7059BE99A4007EC9BFCE99A4B
:10029700F90FD8E0E4C9FAE4CCFB2275F010EF2F90
:1002A700FFEE33FEED33FDCC33CCC833C810D70790
:1002B7009BEC9AE899400AED9BFDEC9AFCE899F8CB
:0E02C7000FD5F0DAE4CDFBE4CCFAE4C8F9225E
:00000001FF
